:020000020000FC
:100000000C9452040C942A000C942A000C942A009C
:100010000C942A000C942A000C942A000C942A00B8
:100020000C942A000C942A000C9465010C942A006C
:100030000C942A000C942A020C942A000C942A0096
:100040000C942A000C942A000C942A000C942A0088
:100050000C942A0018952E650D0017310E001F090B
:100060000F0001EE0F007FE0100067E1110097F133
:100070001200F61114007B4315002B8716001ADEC0
:1000800017006D4919005BCA1A0001010101010145
:100090000101010101010101010202020202020249
:1000A000020202030303030303030404040404051C
:1000B0000505050606060707070708080909090ACE
:1000C0000A0B0B0C0C0D0E0E0F1010111213131443
:1000D00015161718191A1C1D1E1F21222426272940
:1000E0002B2D2F313335383A3D3F4245484C4F5246
:1000F000565A5E62676B70757A7F858B91989EA564
:10010000ADB5BDC5CED7E0EAF5FF19191919191912
:100110001919191919191919191A1A1A1A1A1A1A48
:100120001A1A1A1B1B1B1B1B1B1B1C1C1C1C1C1D1B
:100130001D1D1D1D1D1D1E1E1E1E1F1F20202021DA
:100140002122222323242525262626272829292A59
:100150002B2C2D2E2F2F313233343637383A3B3D6E
:100160003F41424446484B4C4F515456595D5F62A3
:1001700066696D7075797D82868B90959BA1A7AD20
:10018000B4BBC2CAD2DAE2EBF5FF8763634D2C3C05
:10019000C92E6124491CFE151A114C0D570A0A0874
:1001A0004006DC04C803F0024902C70162011301E2
:1001B000D600A600810065004E003D002F002500FE
:1001C0001D00160012000E000A00000000010101CF
:1001D00001010202020203030303030404040405F1
:1001E00005050506060606070707070808080809A3
:1001F0000909090A0A0A0B0B0B0B0C0C0C0D0D0D4F
:100200000E0E0E0F0F0F10101011111212121313E9
:1002100014141415151616171717181819191A1A71
:100220001B1B1C1C1D1D1E1E1F1F202121222223E3
:10023000232425252627272829292A2B2B2C2D2D39
:100240002E2F303031323333343536373838393A6F
:100250003B3C3D3E3F3F4041424344454647484981
:100260004A4B4C4D4E5051525354555657595A5B68
:100270005C5D5F60616264656668696A6C6D6E7022
:100280007173747677787A7B7D7E808283858688A9
:100290008A8B8D8E9092949597999A9C9EA0A2A4F9
:1002A000A5A7A9ABADAFB1B3B5B7B9BBBDBFC1C30E
:1002B000C5C7C9CBCED0D2D4D6D9DBDDE0E2E4E7E6
:1002C000E9EBEEF0F3F5F7FAFCFF0F930FB70F939E
:1002D0001F932F933F934F935F936F937F93EF936E
:1002E000FF930F921F929398E091E200EFB9142DC3
:1002F0005091780052FF03C07091D6000EC07091EB
:10030000D7000BC06091D400653030F0E2E4F1E139
:10031000E10FF61FC895102D22C06091D400653002
:10032000C8F0E2E4F1E1E10FF61FC895272F210F95
:10033000102DE2E4F1E1E20FF61FC8952227101913
:100340002809170F281D14F410E020E0222309F0DB
:100350001FEF05C0171710F010E001C01FEF105875
:10036000E091E100EFB9072D7091D7000BC06091CB
:10037000D500653030F0E2E4F1E1E00FF61FC895FA
:10038000002D22C06091D5006530C8F0E2E4F1E1B3
:10039000E00FF61FC895272F200F002DE2E4F1E1B2
:1003A000E20FF61FC895222700192809070F281DFC
:1003B00014F400E020E0222309F00FEF05C0071736
:1003C00010F000E001C00FEF005867E81603F001DD
:1003D00067E70603E00DF11D8F01939A20918A00D3
:1003E0002F3F29F01203F001029FE10DF81D13E0E9
:1003F0009398F0580F2FEE0F001F111FEE0F001FE4
:10040000111FEE0F001F111FEE0F001F111F1FB94C
:10041000102FEEECF0E00191200E0191301E0191C1
:10042000401E0191500E0191601E0191701E1FB976
:100430001F900F90FF91EF917F916F915F914F917E
:100440003F912F911F919498939A949A0F910FBF77
:100450000F9118950F930FB70F931F930CB15798E7
:10046000003F20F000E000936000EEC00023F2F4B3
:10047000102F107F103851F0103941F0103B31F03F
:10048000103E21F010E010936000DEC01093600079
:100490000F7003950093610010917A00112329F0E9
:1004A000101719F010E010936000CEC0109160009A
:1004B000103819F0113839F00AC013951093600004
:1004C00000936200C1C01A951093600010C01039EB
:1004D00019F0113939F03FC0139510936000009363
:1004E0006200B2C01A9510936000002309F50091D4
:1004F000620010916600011719F41FEF1093660057
:1005000010916400011759F4109166001F3F41F0EB
:1005100010936400109365001FEF1093660094C061
:100520001FEF1093640010E010939E00919A8CC00E
:1005300000936300109164001093660010916200B4
:10054000109364001093650011E010939E001093C7
:100550009F00919879C0103B19F0113B39F05BC0B6
:10056000139510936000009362006EC01A9510936B
:10057000600010916200AF93BF93103320F01034ED
:1005800018F01035D0F03EC0A8EEB0E0A10FB81DB5
:10059000000F0C9310531770AEE8B0E0A10FB81D18
:1005A0000C91A6E9B0E0A10FB81D0C93ACE6B0E049
:1005B000A10FB81D10E01C932BC010541770A09110
:1005C000780006FB103011F4A0F919C0113011F4B5
:1005D000A1F915C0123011F4A2F911C0133011F4B1
:1005E000A3F90DC0143011F4A4F909C0153011F4A9
:1005F000A5F905C0163011F4A6F901C0A7F9A0931A
:10060000780006C0A8EEB0E0A10FB81D000F0C9353
:10061000BF91AF9119C0103E19F0113E39F014C0CE
:10062000139510936000009362000EC01A9510930A
:10063000600010916200110F110F001F00581093FD
:1006400067000093680000C01F910F910FBF0F91CA
:10065000579A189527B9369A0895349BFECF349A45
:1006600004B115B11695079516950795089522239F
:1006700031F02F93159507952A95E1F72F9108955D
:10068000442341F04F9336952795179507954A9542
:10069000D1F74F910895442341F04F93000F111F5C
:1006A000221F331F4A95D1F74F910895379FE001DC
:1006B000279FA001179FD001079F902DA10DB41F68
:1006C000C51FD81D369FA001169F900DA11DB41FF8
:1006D000C51FD81D269FA001069F802D910DA41F28
:1006E000B51FC81DD81D0A2F1B2F2C2F3D2F089575
:1006F000EE0FF0E0BB96EE0FFF1F059115912591CF
:10070000359108956F937F93E72FF2DF802F912F1C
:10071000A22FB32FE72FE395EBDF081B190B2A0B52
:100720003B0B8F939F93AF93BF93762F60E04F93D4
:10073000BDDF4F91BF91AF919F918F91080F191F0E
:100740002A1F3B1F7F916F91089540E002C07C50AB
:1007500043957C30E0F70895EE0FFF1FE00FF81D82
:1007600004910895E00FF81DEE0FFF1F25913491BD
:100770000895069506950695E5ECF0E0F3DF002771
:100780001127089560E0702F703718F0703938F035
:100790000CC000E010E221E0E0E0F0E00BC008E077
:1007A00011E220E0ECE8FFE605C007EB1DE121E0E7
:1007B000E7E6F2EE30E07ADF0E0F1F1F0895E199B1
:1007C000FECFBFB6F8942FBB1EBB0DBBE29AE19AD9
:1007D000BFBE0895E199FECFBFB6F8942FBB1EBBF4
:1007E000E09A0DB3BFBE089500937A0023E01FEF97
:1007F000E6DF03E00093E7000FEF0093E50000E37E
:100800000093E6000895002700936C0000936D00AC
:1008100000936E0000936F000093700000937100CE
:10082000009372000093730000918E000093960075
:1008300000918F0000939700009190000093980022
:1008400000919100009399000091920000939A000A
:100850000091930000939B000091940000939C00F2
:100860000091950000939D000895CCE6D0E0C40F60
:10087000D81D288120FD14C0302FC6E9D0E0C40F58
:10088000D81D1881311B0AF43195353038F02160BC
:10089000CCE6D0E0C40FD81D288302C010E0089534
:1008A00011E00895F89400913400006804BF04BF7B
:1008B0000FE518E00DBF1EBF8824222433244424F2
:1008C0005524662477249924AA2422273327EE2747
:1008D000FF2705E00093CD0000E00093E7000093C0
:1008E000780000937A000093D90000939E00009353
:1008F0009F0000938A000093A7000093A800009334
:10090000A90000938C00009385000093860000935B
:10091000870000936700009368000093E90000934C
:100920006A000093E00002E0009388000FEF00935C
:100930006B000093DA000093890000936400009339
:1009400066000EE514EB26E70093BC001093BD0093
:100950002093BE0000E010E020E00093BF00109361
:10096000C0002093C1000FEF1FEF2FEF0093C200D4
:100970001093C3002093C40024E10093C50010939A
:10098000C6002093C70024E60093C8001093C90056
:100990002093CA0001E000936C0000936D00009367
:1009A0006E0000936F00009370000093710000933D
:1009B000720008E10093AE000FEF0093790000EBA6
:1009C0000093E20000E00093E10000E00093B0003B
:1009D0000093B5000093A60000937B0000937C0079
:1009E000009369000093190100931F0104E600932E
:1009F000200100E00BBB00E00ABB0FEF08BB00E0EA
:100A000007BB00EB07BB00E50DB901E00EB900E044
:100A100004BB0FEF05BB0EEF01BB00E002BB919AD8
:100A200001E30CBF0AE003BF04E00EBD09E103BD12
:100A300001E605BD00E000BD0FE109B900E90AB912
:100A400006E806B902E009BF789420918C0002DE26
:100A500023E01FEFBFDE053008F000E000937A00CE
:100A60000CB51DB50093A0001093A1000CB51DB5E9
:100A70002091A0003091A100021B130B0A561841CF
:100A800008F44BC003B3109174002091790000FB6F
:100A900020F904FB13F905FB12F906FB11F907FB1A
:100AA00010F9109374002093790030916B0030FF9F
:100AB00007C01093760010937800332730936B00B3
:100AC0000091740010917600011739F1209178009F
:100AD000102710FF02C000FB20F911FF02C001FB2C
:100AE00021F912FF02C002FB22F913FF02C003FB2F
:100AF00023F914FF02C004FB24F915FF02C005FB13
:100B000025F916FF02C006FB26F917FF02C007FBF6
:100B100027F920937800009376005091790050FDDA
:100B20000BC001E00093E7000FEF0093E50000E643
:100B30000093E600002767DE0091E7000023A9F09C
:100B40001091E5002091E600101B2809222349F0AE
:100B50001093E5002093E60021FF919821FD919AE2
:100B600004C0919A00E00093E70077DD20918C00AB
:100B700020938D00CEE8D0E0C20FD81D08832395C6
:100B8000277020938C0066DD40918D00403081F409
:100B90006CDE1123A1F1009369000093180100910C
:100BA000E700002361F1033051F104E01DDE6DC068
:100BB000413071F45ADE112311F1009319010091B3
:100BC000E7000023E1F00330D1F003E00DDE5DC06B
:100BD0004230B1F44ADE112351F000931A01009122
:100BE000E700002321F0033011F002E0FDDD009169
:100BF0001A01C8DD105800937B0010937C0045C09B
:100C00004330B9F432DE112351F000931B010091FF
:100C1000E700002321F0033011F001E0E5DD009151
:100C20001B0106950A3008F001C00AE00093D700C6
:100C30002CC0443031F419DE112339F100931C012A
:100C400024C04530D9F411DE112311F000931D01A9
:100C500000911D013091780030FF08C03FEF3093C4
:100C60007F0030937E00009380000FC030E030930F
:100C70007F0000937E000093800007C0463029F477
:100C8000F4DD112311F000931E0100916300000FA9
:100C900010912001019F1092AE006CB57DB5262FFA
:100CA000372F0091A2001091A300601B710B2093BD
:100CB000A2003093A3006093A4007093A50000915C
:100CC00019011091780013FF03C00C3D08F00CEDE2
:100CD00000954FDD6091A4007091A500E7DC309194
:100CE000B1004091B2005091B3005058F0E0E09153
:100CF000B000EE23A1F46091C2007091C300809116
:100D0000C400300F411F521F20F036174707580705
:100D1000C8F0362F472F582FE1E0F1E013C0609163
:100D2000BF007091C0008091C100301B410B520B7D
:100D300020F063177407850728F0362F472F582FA8
:100D4000E0E0F1E0E093B00050583093B100409300
:100D5000B2005093B30000E010E020E009C0FF2390
:100D6000B1F00091BC001091BD002091BE002F7722
:100D70000093BF001093C0002093C1000095109510
:100D800020950093C2001093C3002093C400509399
:100D9000B400009118011091E900011718F4012F17
:100DA0000091E9000093690004EBE3DC6091A4008A
:100DB0007091A5007BDC3091B6004091B700509156
:100DC000B8005058F0E0E091B500EE23A1F4609136
:100DD000C8007091C9008091CA00300F411F521F96
:100DE00020F0361747075807C8F0362F472F582FDF
:100DF000E1E0F1E013C06091C5007091C600809100
:100E0000C700301B410B520B20F063177407850796
:100E100028F0362F472F582FE0E0F1E0E093B5009F
:100E200050583093B6004093B7005093B8005058D4
:100E30005093D6001091A60000911E01113069F068
:100E400000917E00123049F000918000143029F0AA
:100E500060917F00133039F13AC08BDC6091A400BF
:100E60007091A50023DC3091A7004091A80050911B
:100E7000A9006091A6006430D1F0623049F0300FD3
:100E8000411F521FF0F43FEF4FEF5FEF02E017C03A
:100E9000301B410B520B78F060917F00651788F092
:100EA00003E00093A60033274427562F0AC0301BC7
:100EB000410B520B30F430E040E050E000E0009392
:100EC000A6003093A7004093A8005093A90000917A
:100ED0009E00002339F404E01091A600112399F03C
:100EE0000093A60000919F00002369F000E00093AA
:100EF0009F0000918800002319F00A950093880054
:100F000001E00093A60090E060E0709165007F3FF3
:100F100011F4B0C07C507136E8F701C0745F7432D0
:100F2000E8F37C5090918500A0918600B0918700F5
:100F300000918800002381F500911F011ADC6F9356
:100F40007F93622F732F00E010E02091A400309176
:100F5000A50043E095DBAADB7F916F91302F412FF5
:100F6000522F90918500A0918600B09187006A175A
:100F70007B0738F4931BA40BB50B6A177B0750F063
:100F800006C0930FA41FB51F6A177B0718F490E0E3
:100F9000A62FB72F6A2F7B2F909385006093860032
:100FA00070938700009167001091680025E05FDB77
:100FB000202F312F020F131F020F131F600F711FFD
:100FC00070938B000091780003FD1FC00091B40066
:100FD0001091690020911901203009F001C010E042
:100FE000212F1695203810F01058120F01038001A0
:100FF00024E03DDB600F711F77231AF460E070E09E
:1010000004C07D3610F060E07CE66F937F93972FED
:101010009D5008F499279695969596959093D400AF
:1010200094DB70DB38DB1093CE002093CF0030933D
:10103000D0007F916F9100917B0010917C0024E0A3
:1010400016DB600F711F0091780094EF01FF790F9C
:10105000972F9D5008F4992796959695969590937D
:10106000D50073DB4FDB17DB1093D1002093D20048
:101070003093D300E0E0F0E00091780003FF0C949F
:1010800053080091B400109169001A3B08F01AEB64
:1010900020911901203009F001C010E00103E12D79
:1010A000F0E0111CFF0B0091A9001091AE00019F10
:1010B0008001001FE11FF81D00911C0111270E0F78
:1010C0001F1F112312F400E002C009F00FEF069574
:1010D000102FE5E4F0E040DB00938900012FE5E804
:1010E000F0E03ADB03BD0091A900E5EEF0E034DB6F
:1010F00000938A00E0E60E0F08F40FEF1BE0000FEC
:10110000111F000F111F000F111F000F111F10934F
:10111000E2000093E1000091BC001091BD0020911D
:10112000BE0027FB30F922FB40F934273695001F1B
:10113000111F221F0093BC001093BD002093BE001E
:1011400095CC801211151616161819191A1B1C1D8C
:101150001E1F2020212223242526272728292A2B49
:101160002C2D2D2E2F30313233343435363738395B
:101170003A3A3B3C3D3E3F4041414243444546476D
:101180004748494A4B4C4D4D4E4F50515253535482
:101190005556575859595A5B5C5D5E5F6060616295
:1011A00063646566666768696A6B6C6D6D6E6F70A7
:1011B000717273737475767778797A7A7B7C7D7EB9
:1011C0007F808080818283848586868788898A8BD8
:1011D0008C8D8D8E8F9091929393949596979899EC
:1011E0009A9A9B9C9D9E9FA0A0A1A2A3A4A5A6A7FE
:1011F000A7A8A9AAABACADADAEAFB0B1B2B3B3B412
:10120000B5B6B7B8B9B9BABBBCBDBEBFBFC0C1C225
:10121000C3C4C5C6C6C7C8C9CACBCCCCCDCECFD037
:10122000D1D2D3D3D4D5D6D7D8D9D9DADBDCDDDE49
:10123000DFE0E0E1E2E3E4E5E6E7E7E8EAEAEAEB5B
:10124000EFEE801110151715161919191A1C1C1D0F
:101250001E1F1F20222223242526262728292A2B49
:101260002C2C2D2E2F30313233333435363738395C
:10127000393A3B3C3D3E3F4040414243444546466F
:101280004748494A4B4C4C4D4E4F50515253535482
:101290005556575859595A5B5C5D5E5F6060616294
:1012A00063646566666768696A6B6C6D6D6E6F70A6
:1012B000717273737475767778797A7A7B7C7D7EB8
:1012C0007F808080818283848586868788898A8BD7
:1012D0008C8D8D8E8F9091929393949596979899EB
:1012E0009A9A9B9C9D9E9FA0A0A1A2A3A4A5A6A7FD
:1012F000A7A8A9AAABACADADAEAFB0B1B2B3B4B410
:10130000B5B6B7B8B9BABABBBCBDBEBFC0C0C1C222
:10131000C3C4C5C6C7C7C8C9CACBCCCDCDCECFD034
:10132000D1D2D3D4D4D5D6D7D8D9DADADBDCDDDE46
:10133000DEE0E1E1E2E3E4E4E6E7E7E7EAEBE9EB5C
:10134000F0EF801C161414141516181A1B1C1D1D02
:101350001E1E1F2021222324252627272829292A4B
:101360002B2C2D2E2F30313232333435363738395D
:101370003A3A3B3C3D3E3E3F40414243444546466F
:101380004748494A4B4C4D4D4E4F50515252535481
:101390005556575859595A5B5C5D5E5F6061616292
:1013A00063646565666768696A6B6C6D6D6E6F70A6
:1013B00071727374747576777879797A7B7C7D7EB7
:1013C0007F808080818283848586878788898A8BD5
:1013D0008C8C8D8E8F9091929393949596979899EB
:1013E0009A9B9B9C9D9E9F9FA0A1A2A3A4A5A6A7FC
:1013F000A7A8A9AAABACADAEAEAFB0B1B2B3B3B40F
:10140000B5B6B7B8B9BABABBBCBDBEBFC0C1C2C21F
:10141000C3C4C5C6C6C7C8C9CACBCCCDCECECFD033
:10142000D1D2D3D4D5D6D7D7D8D9D9DADBDCDDDE43
:10143000DFE0E1E2E2E3E3E4E5E6E8EAEBECECEC52
:10144000EAE4800A0F1A15131919171A1C1A1C1E20
:101450001D1E2120212323232526262829292A2C45
:101460002C2C2E2E2F303131333434353737383958
:101470003A3A3C3C3D3E3F3F414242434445464769
:101480004748494A4B4C4D4D4E505051525353557D
:1014900055565758595A5B5B5C5D5E5F606161628F
:1014A00063646566666769696A6B6C6C6E6E6F70A3
:1014B000717273747475767778797A7A7B7C7D7EB5
:1014C0007F7F8081818283848586868788898A8BD5
:1014D0008C8C8D8E8F9091929294949596979799EB
:1014E0009A9A9B9C9D9E9F9FA0A1A2A3A4A5A5A6FE
:1014F000A7A8A9AAABABADADAEAFB0B0B2B3B3B411
:10150000B5B6B7B8B9B9BABBBCBDBEBEBFC1C1C222
:10151000C3C4C4C6C6C7C8C9C9CBCCCCCDCFCFD035
:10152000D1D2D2D4D4D4D6D7D7D8DADADBDDDDDD48
:10153000DFE0DFE2E3E2E4E6E4E6E9E7E7EDEBE65D
:10154000F1F680011B131519141C161C191C1D1C07
:10155000201D211F222223252427262828292B2A43
:101560002D2C2E2E30303132323434363637383856
:101570003A3A3C3C3D3E3F40404242434445464669
:1015800048484A4A4B4C4C4E4E505051525354547A
:1015900056565758595A5A5C5C5D5E5F606062628D
:1015A000636465666668686A6A6B6C6D6E6E70709F
:1015B000717273747476767778797A7A7C7C7D7EB2
:1015C0007F808080818283848486868788898A8AD6
:1015D0008C8C8D8E8F9090929293949596969898ED
:1015E0009A9A9B9C9D9E9EA0A0A1A2A3A4A4A6A6FD
:1015F000A7A8A9AAAAACACADAEAFB0B0B2B2B4B411
:10160000B5B6B6B8B8BABABBBCBDBEBEC0C0C1C222
:10161000C3C4C4C6C6C8C8C9CACACCCCCECECFD033
:10162000D0D2D2D4D3D6D5D7D8D8DAD9DCDBDDDE48
:10163000DEE1DFE3E0E4E3E4E7E4EAE4ECE7EBED5A
:10164000E5FF801A01181E11131D1B151A1F1B1A06
:1016500020211E1F242321242725252929282A2C3F
:101660002C2B2E2F2E2F3232323335353538393858
:10167000393B3C3B3D3F3E3F414242434545454768
:101680004848494B4B4B4D4E4E4F5051515254557B
:1016900055565858585A5B5B5C5E5E5E606161628D
:1016A00064646466676768696A6B6B6D6E6E6F71A0
:1016B000717173747475777777797A7A7B7D7D7DB4
:1016C0007F80808081838383858686878989898BD3
:1016D0008C8C8D8F8F8F91929293959596979899E8
:1016E000999A9C9C9C9E9F9FA0A2A2A2A4A5A5A6FD
:1016F000A8A8A8AAABABACAEAFAFB0B1B2B2B3B50D
:10170000B5B5B7B8B8B9BBBBBBBDBEBEBFC1C2C122
:10171000C3C5C4C5C7C8C7C8CBCBCBCDCECECED131
:10172000D2D1D2D5D4D4D6D8D7D7DBDBD9DCDFDD44
:10173000DCE1E2DFE0E6E5E1E6EBE5E3EDEFE2E860
:10174000FFE680390B000D1D211B13131920211DED
:101750001A1B2024242120222628282626282B2D47
:101760002C2B2B2E3132313031343636353537395A
:101770003B3B3A3B3C3F40403F404244454545456A
:1017800047494A4A4A4B4D4E4F4F4F50525454547A
:101790005456585959595A5B5D5E5E5E5F6162638B
:1017A00063636466676868686A6C6C6D6D6E6F71A0
:1017B000717272737576777777787A7B7C7C7C7EB2
:1017C0007F80808081828484848586888989898AD3
:1017D0008B8D8E8E8F8F91929393949496989898E8
:1017E000999A9C9D9D9D9E9FA1A2A2A2A3A5A6A7FA
:1017F000A7A7A8AAACACACACAEB0B1B1B1B2B3B50E
:10180000B6B6B6B7B9BBBBBBBBBCBEC0C1C0C0C11E
:10181000C4C5C6C5C5C7C9CBCBCACACCCFD0CFCE2D
:10182000CFD2D5D5D4D3D5D8DADAD8D8DADEE0DF3E
:10183000DCDCE0E5E6E3DFE0E7EDEDE5DFE3F3FF49
:10184000F5C78051290E02030C172024221D1815FC
:10185000161A202426262421202124282B2C2C2B48
:101860002A292A2C2F323333333231323437393B61
:101870003B3A3A3A3B3D3F4142424242424345476E
:10188000494A4A4A4A4A4B4C4E505152525152537D
:10189000545658595A59595A5B5C5E60616161618E
:1018A000626364666869696969696A6C6E6F7071A0
:1018B0007171717274767778797979797A7C7D7FB4
:1018C0008080808080818384868787878788898AD3
:1018D0008C8E8F8F8F8F90919294969797979797E2
:1018E000989A9C9D9E9F9F9F9FA0A2A4A5A6A7A7F4
:1018F000A6A7A8AAACADAEAFAEAEAFB0B2B4B5B607
:10190000B6B6B6B6B7B9BBBDBEBEBEBEBEBFC1C31E
:10191000C5C6C6C6C5C5C7C9CCCECFCECDCDCDCE2A
:10192000D1D4D6D7D6D5D4D4D5D8DCDFE0DFDCDA35
:10193000DADCE0E6EAEBE8E3DEDCE0E9F4FDFEF227
:10194000D7AF8061442B180B0403060C141C22260D
:10195000282725221E1C1B1B1D2124282B2E2F2F40
:101960002E2C2B2A2A2B2C2F313436383939393862
:10197000373737383A3C3E40424444454444444477
:10198000444547484A4C4E4F505050505050515289
:10199000535557595A5B5C5C5C5C5C5C5D5E606196
:1019A00063656667686868686869696B6C6E7071A2
:1019B00073747474747475757677797A7C7E7F80AD
:1019C0008080808080808182848687898A8B8B8CCE
:1019D0008C8C8C8C8D8F90929495979798989898E2
:1019E00098999A9B9D9FA0A2A3A4A4A4A4A4A4A5F3
:1019F000A6A7A9ABADAEAFB0B0B0B0B0B0B1B2B405
:101A0000B6B8B9BBBCBCBCBCBCBBBCBCBEC0C2C411
:101A1000C6C8C9C9C9C8C7C7C7C8CACCCFD1D4D519
:101A2000D6D6D5D4D2D1D1D2D5D8DCDFE3E5E5E422
:101A3000E2DEDBD9D8DADEE4ECF4FAFDFCF5E8D539
:101A4000BC9F806D5A49382A1E140C0805050609EA
:101A50000D12181D22262A2C2E2F2E2D2C2A292736
:101A6000262524252627292C2F313437393B3C3D88
:101A70003D3D3D3D3C3B3B3B3B3B3C3D3F4143458E
:101A800047494B4D4E4F4F505050504F4F4F4F5076
:101A90005052535456585A5C5E5F6062626363638F
:101AA000636363636364646567686A6B6D6F7172B7
:101AB00074757576767777777777777778797A7BB5
:101AC0007D7F8081838586878889898989898989BD
:101AD0008A8A8B8B8C8E8F9193959698999B9C9CE0
:101AE0009D9D9D9D9D9D9D9D9E9EA0A1A2A4A6A8FD
:101AF000AAACADAEB0B0B1B1B1B1B0B0B0B0B1B1EF
:101B0000B2B3B5B7B9BBBDBFC1C3C4C5C5C5C5C5F3
:101B1000C4C3C3C3C3C3C4C5C7C9CCCFD1D4D7D929
:101B2000DADBDCDBDAD9D7D6D4D3D2D1D2D4D6DA49
:101B3000DEE3E8EEF3F7FAFBFBF8F4ECE2D6C8B725
:101B4000A6938074685B50453A3128201A140F0C14
:101B50000A080808090B0E1114181C2023272A2E26
:101B60003033353638383939383837363635343316
:101B7000323232323333343537393B3D3F414345DE
:101B8000484A4C4D4F505152535353535353535350
:101B90005352525253535454555658595B5C5E60DD
:101BA00062646667696B6C6D6E6F70707171717174
:101BB00071717171717272727374747677787A7BE5
:101BC0007D7F808183858688898A8C8C8D8E8E8EA0
:101BD0008F8F8F8F8F8F8F8F8F90909192939495FF
:101BE00097999A9C9EA0A2A4A5A7A8AAABACACADBD
:101BF000ADAEAEAEADADADADADADADADADAEAFB00C
:101C0000B1B3B4B6B8BBBDBFC1C3C5C7C9CBCCCDDA
:101C1000CDCECECECECDCCCBCACAC9C8C8C7C7C818
:101C2000C8CACBCDD0D2D6D9DDE0E4E8ECEFF2F5EE
:101C3000F7F8F8F8F6F4F1ECE6E0D8CFC6BBB0A5BB
:101C4000988C80776E655D544C443C352F29231E5B
:101C50001A1613100E0C0B0B0B0B0C0E1012141784
:101C60001A1D202326292C2F3235373A3C3D3F4080
:101C70004243434444444444444343424241414137
:101C800040404040404141424344454648494B4D15
:101C90004F51535557595B5C5E6062636566676878
:101CA00069696A6B6B6B6B6B6C6C6B6B6B6B6B6C86
:101CB0006C6C6C6D6D6E6F70717273757678797B0C
:101CC0007D7F8081838587888A8B8D8E8F9091928E
:101CD00093939494949495959595959494959595BE
:101CE000959596979798999A9B9D9EA0A2A4A5A733
:101CF000A9ABADAFB1B3B5B7B8BABBBCBDBEBFBF82
:101D0000C0C0C0C0C0BFBFBFBEBEBDBDBCBCBCBCF0
:101D1000BCBCBDBDBEC0C1C3C4C6C9CBCED1D4D767
:101D2000DADDE0E3E6E9ECEEF0F2F4F5F5F5F5F4F2
:101D3000F2F0EDEAE6E2DDD7D1CBC4BCB4ACA39BB4
:021D4000928986
:00000001FF
